{
  "_format": "hh-sol-artifact-1",
  "contractName": "IdentityManagement",
  "sourceName": "contracts/IdentityManagement.sol",
  "abi": [
    {
      "anonymous": false,
      "inputs": [
        {
          "indexed": false,
          "internalType": "string",
          "name": "userId",
          "type": "string"
        },
        {
          "indexed": false,
          "internalType": "bytes32",
          "name": "identityHash",
          "type": "bytes32"
        },
        {
          "indexed": false,
          "internalType": "uint256",
          "name": "timestamp",
          "type": "uint256"
        }
      ],
      "name": "IdentityStored",
      "type": "event"
    },
    {
      "anonymous": false,
      "inputs": [
        {
          "indexed": false,
          "internalType": "string",
          "name": "userId",
          "type": "string"
        },
        {
          "indexed": false,
          "internalType": "uint256",
          "name": "timestamp",
          "type": "uint256"
        }
      ],
      "name": "IdentityVerified",
      "type": "event"
    },
    {
      "inputs": [
        {
          "internalType": "string",
          "name": "_userId",
          "type": "string"
        }
      ],
      "name": "getIdentityHash",
      "outputs": [
        {
          "internalType": "bytes32",
          "name": "",
          "type": "bytes32"
        }
      ],
      "stateMutability": "view",
      "type": "function"
    },
    {
      "inputs": [
        {
          "internalType": "string",
          "name": "_userId",
          "type": "string"
        }
      ],
      "name": "getVerificationStatus",
      "outputs": [
        {
          "internalType": "bool",
          "name": "",
          "type": "bool"
        }
      ],
      "stateMutability": "view",
      "type": "function"
    },
    {
      "inputs": [
        {
          "internalType": "string",
          "name": "_userId",
          "type": "string"
        },
        {
          "internalType": "bytes32",
          "name": "_identityHash",
          "type": "bytes32"
        }
      ],
      "name": "storeIdentityHash",
      "outputs": [],
      "stateMutability": "nonpayable",
      "type": "function"
    },
    {
      "inputs": [
        {
          "internalType": "string",
          "name": "_userId",
          "type": "string"
        }
      ],
      "name": "verifyIdentity",
      "outputs": [],
      "stateMutability": "nonpayable",
      "type": "function"
    }
  ],
  "bytecode": "0x608060405234801561001057600080fd5b5061078e806100206000396000f3fe608060405234801561001057600080fd5b506004361061004c5760003560e01c8063042b2167146100515780632e069660146100815780637fa84046146100b1578063f9915efa146100cd575b600080fd5b61006b60048036038101906100669190610458565b6100e9565b60405161007891906104bc565b60405180910390f35b61009b60048036038101906100969190610458565b610120565b6040516100a891906104f0565b60405180910390f35b6100cb60048036038101906100c69190610458565b61014a565b005b6100e760048036038101906100e29190610537565b61024c565b005b600080826040516100fa9190610604565b908152602001604051809103902060010160009054906101000a900460ff169050919050565b600080826040516101319190610604565b9081526020016040518091039020600001549050919050565b6000801b60008260405161015e9190610604565b908152602001604051809103902060000154036101b0576040517f08c379a00000000000000000000000000000000000000000000000000000000081526004016101a790610678565b60405180910390fd5b60016000826040516101c29190610604565b908152602001604051809103902060010160006101000a81548160ff021916908315150217905550426000826040516101fb9190610604565b9081526020016040518091039020600201819055507f67c4aac5e48011c93c95d6143379c6621b21df6c8b903b044c55f6be6d5e48ee81426040516102419291906106ea565b60405180910390a150565b60405180606001604052808281526020016000151581526020014281525060008360405161027a9190610604565b90815260200160405180910390206000820151816000015560208201518160010160006101000a81548160ff021916908315150217905550604082015181600201559050507fc06558772d79b0871ff99b1e85bbaf2d801a1d7a29b4188dd9d358b42af4857a8282426040516102f29392919061071a565b60405180910390a15050565b6000604051905090565b600080fd5b600080fd5b600080fd5b600080fd5b6000601f19601f8301169050919050565b7f4e487b7100000000000000000000000000000000000000000000000000000000600052604160045260246000fd5b6103658261031c565b810181811067ffffffffffffffff821117156103845761038361032d565b5b80604052505050565b60006103976102fe565b90506103a3828261035c565b919050565b600067ffffffffffffffff8211156103c3576103c261032d565b5b6103cc8261031c565b9050602081019050919050565b82818337600083830152505050565b60006103fb6103f6846103a8565b61038d565b90508281526020810184848401111561041757610416610317565b5b6104228482856103d9565b509392505050565b600082601f83011261043f5761043e610312565b5b813561044f8482602086016103e8565b91505092915050565b60006020828403121561046e5761046d610308565b5b600082013567ffffffffffffffff81111561048c5761048b61030d565b5b6104988482850161042a565b91505092915050565b60008115159050919050565b6104b6816104a1565b82525050565b60006020820190506104d160008301846104ad565b92915050565b6000819050919050565b6104ea816104d7565b82525050565b600060208201905061050560008301846104e1565b92915050565b610514816104d7565b811461051f57600080fd5b50565b6000813590506105318161050b565b92915050565b6000806040838503121561054e5761054d610308565b5b600083013567ffffffffffffffff81111561056c5761056b61030d565b5b6105788582860161042a565b925050602061058985828601610522565b9150509250929050565b600081519050919050565b600081905092915050565b60005b838110156105c75780820151818401526020810190506105ac565b60008484015250505050565b60006105de82610593565b6105e8818561059e565b93506105f88185602086016105a9565b80840191505092915050565b600061061082846105d3565b915081905092915050565b600082825260208201905092915050565b7f4964656e746974792064756e67206b686f6e6720746f6e207461690000000000600082015250565b6000610662601b8361061b565b915061066d8261062c565b602082019050919050565b6000602082019050818103600083015261069181610655565b9050919050565b60006106a382610593565b6106ad818561061b565b93506106bd8185602086016105a9565b6106c68161031c565b840191505092915050565b6000819050919050565b6106e4816106d1565b82525050565b600060408201905081810360008301526107048185610698565b905061071360208301846106db565b9392505050565b600060608201905081810360008301526107348186610698565b905061074360208301856104e1565b61075060408301846106db565b94935050505056fea264697066735822122008c4b6f7120ee0e27834774490b96b74b66184579e18351720a8ae22f3ee0e8f64736f6c63430008140033",
  "linkReferences": {},
  "deployedLinkReferences": {}
}